{
  "contractName": "Identity",
  "abi": [
    {
      "constant": true,
      "inputs": [
        {
          "name": "",
          "type": "address"
        }
      ],
      "name": "identityUser",
      "outputs": [
        {
          "name": "issuer",
          "type": "address"
        },
        {
          "name": "identityContract",
          "type": "address"
        },
        {
          "name": "identityOwner",
          "type": "address"
        },
        {
          "name": "timestampCreation",
          "type": "uint256"
        }
      ],
      "payable": false,
      "stateMutability": "view",
      "type": "function"
    },
    {
      "constant": true,
      "inputs": [],
      "name": "emergencyStop",
      "outputs": [
        {
          "name": "",
          "type": "bool"
        }
      ],
      "payable": false,
      "stateMutability": "view",
      "type": "function"
    },
    {
      "constant": true,
      "inputs": [],
      "name": "owner",
      "outputs": [
        {
          "name": "",
          "type": "address"
        }
      ],
      "payable": false,
      "stateMutability": "view",
      "type": "function"
    },
    {
      "constant": true,
      "inputs": [],
      "name": "id_contract",
      "outputs": [
        {
          "name": "",
          "type": "address"
        }
      ],
      "payable": false,
      "stateMutability": "view",
      "type": "function"
    },
    {
      "inputs": [],
      "payable": false,
      "stateMutability": "nonpayable",
      "type": "constructor"
    },
    {
      "anonymous": false,
      "inputs": [
        {
          "indexed": false,
          "name": "_issuer",
          "type": "address"
        },
        {
          "indexed": false,
          "name": "_contract",
          "type": "address"
        },
        {
          "indexed": false,
          "name": "_owner",
          "type": "address"
        },
        {
          "indexed": false,
          "name": "_timestamp",
          "type": "uint256"
        }
      ],
      "name": "IdentityCreated",
      "type": "event"
    },
    {
      "anonymous": false,
      "inputs": [
        {
          "indexed": false,
          "name": "_from",
          "type": "address"
        },
        {
          "indexed": false,
          "name": "_contract",
          "type": "address"
        },
        {
          "indexed": false,
          "name": "_timestamp",
          "type": "uint256"
        }
      ],
      "name": "IdentityDeleted",
      "type": "event"
    },
    {
      "constant": false,
      "inputs": [],
      "name": "newIdentity",
      "outputs": [],
      "payable": false,
      "stateMutability": "nonpayable",
      "type": "function"
    },
    {
      "constant": true,
      "inputs": [],
      "name": "getUser",
      "outputs": [
        {
          "name": "",
          "type": "address"
        },
        {
          "name": "",
          "type": "address"
        },
        {
          "name": "",
          "type": "address"
        },
        {
          "name": "",
          "type": "uint256"
        }
      ],
      "payable": false,
      "stateMutability": "view",
      "type": "function"
    },
    {
      "constant": false,
      "inputs": [],
      "name": "deleteIdentity",
      "outputs": [],
      "payable": false,
      "stateMutability": "nonpayable",
      "type": "function"
    },
    {
      "constant": false,
      "inputs": [],
      "name": "enableEmergency",
      "outputs": [],
      "payable": false,
      "stateMutability": "nonpayable",
      "type": "function"
    }
  ],
  "bytecode": "0x608060405234801561001057600080fd5b50336001806101000a81548173ffffffffffffffffffffffffffffffffffffffff021916908373ffffffffffffffffffffffffffffffffffffffff160217905550611bd1806100606000396000f30060806040526004361061008e576000357c0100000000000000000000000000000000000000000000000000000000900463ffffffff16806319bb3ae01461009357806363a599a414610183578063832880e7146101b25780638da5cb5b146102765780639ce7874b146102cd578063c53796db146102e4578063e42c4e63146102fb578063e641c86214610312575b600080fd5b34801561009f57600080fd5b506100d4600480360381019080803573ffffffffffffffffffffffffffffffffffffffff169060200190929190505050610369565b604051808573ffffffffffffffffffffffffffffffffffffffff1673ffffffffffffffffffffffffffffffffffffffff1681526020018473ffffffffffffffffffffffffffffffffffffffff1673ffffffffffffffffffffffffffffffffffffffff1681526020018373ffffffffffffffffffffffffffffffffffffffff1673ffffffffffffffffffffffffffffffffffffffff16815260200182815260200194505050505060405180910390f35b34801561018f57600080fd5b506101986103f9565b604051808215151515815260200191505060405180910390f35b3480156101be57600080fd5b506101c761040c565b604051808573ffffffffffffffffffffffffffffffffffffffff1673ffffffffffffffffffffffffffffffffffffffff1681526020018473ffffffffffffffffffffffffffffffffffffffff1673ffffffffffffffffffffffffffffffffffffffff1681526020018373ffffffffffffffffffffffffffffffffffffffff1673ffffffffffffffffffffffffffffffffffffffff16815260200182815260200194505050505060405180910390f35b34801561028257600080fd5b5061028b610588565b604051808273ffffffffffffffffffffffffffffffffffffffff1673ffffffffffffffffffffffffffffffffffffffff16815260200191505060405180910390f35b3480156102d957600080fd5b506102e26105ad565b005b3480156102f057600080fd5b506102f9610908565b005b34801561030757600080fd5b50610310610cce565b005b34801561031e57600080fd5b50610327610d55565b604051808273ffffffffffffffffffffffffffffffffffffffff1673ffffffffffffffffffffffffffffffffffffffff16815260200191505060405180910390f35b60006020528060005260406000206000915090508060000160009054906101000a900473ffffffffffffffffffffffffffffffffffffffff16908060010160009054906101000a900473ffffffffffffffffffffffffffffffffffffffff16908060020160009054906101000a900473ffffffffffffffffffffffffffffffffffffffff16908060030154905084565b600160009054906101000a900460ff1681565b6000806000806000803373ffffffffffffffffffffffffffffffffffffffff1673ffffffffffffffffffffffffffffffffffffffff16815260200190815260200160002060000160009054906101000a900473ffffffffffffffffffffffffffffffffffffffff166000803373ffffffffffffffffffffffffffffffffffffffff1673ffffffffffffffffffffffffffffffffffffffff16815260200190815260200160002060010160009054906101000a900473ffffffffffffffffffffffffffffffffffffffff166000803373ffffffffffffffffffffffffffffffffffffffff1673ffffffffffffffffffffffffffffffffffffffff16815260200190815260200160002060020160009054906101000a900473ffffffffffffffffffffffffffffffffffffffff166000803373ffffffffffffffffffffffffffffffffffffffff1673ffffffffffffffffffffffffffffffffffffffff16815260200190815260200160002060030154935093509350935090919293565b6001809054906101000a900473ffffffffffffffffffffffffffffffffffffffff1681565b600160009054906101000a900460ff1615156109065761062d6000803373ffffffffffffffffffffffffffffffffffffffff1673ffffffffffffffffffffffffffffffffffffffff16815260200190815260200160002060000160009054906101000a900473ffffffffffffffffffffffffffffffffffffffff16610d7b565b15151561063957600080fd5b60008060003373ffffffffffffffffffffffffffffffffffffffff1673ffffffffffffffffffffffffffffffffffffffff16815260200190815260200160002060010160009054906101000a900473ffffffffffffffffffffffffffffffffffffffff1673ffffffffffffffffffffffffffffffffffffffff16635ae5fd506040518163ffffffff167c0100000000000000000000000000000000000000000000000000000000028152600401602060405180830381600087803b15801561070057600080fd5b505af1158015610714573d6000803e3d6000fd5b505050506040513d602081101561072a57600080fd5b810190808051906020019092919050505014151561074757600080fd5b7f2f49bf82607da253acf16307aac0998d6b43f506571e612924511c25f5eb5e7b336000803373ffffffffffffffffffffffffffffffffffffffff1673ffffffffffffffffffffffffffffffffffffffff16815260200190815260200160002060010160009054906101000a900473ffffffffffffffffffffffffffffffffffffffff1642604051808473ffffffffffffffffffffffffffffffffffffffff1673ffffffffffffffffffffffffffffffffffffffff1681526020018373ffffffffffffffffffffffffffffffffffffffff1673ffffffffffffffffffffffffffffffffffffffff168152602001828152602001935050505060405180910390a16000803373ffffffffffffffffffffffffffffffffffffffff1673ffffffffffffffffffffffffffffffffffffffff168152602001908152602001600020600080820160006101000a81549073ffffffffffffffffffffffffffffffffffffffff02191690556001820160006101000a81549073ffffffffffffffffffffffffffffffffffffffff02191690556002820160006101000a81549073ffffffffffffffffffffffffffffffffffffffff0219169055600382016000905550505b565b6000600160009054906101000a900460ff161515610ccb5761098a6000803373ffffffffffffffffffffffffffffffffffffffff1673ffffffffffffffffffffffffffffffffffffffff16815260200190815260200160002060000160009054906101000a900473ffffffffffffffffffffffffffffffffffffffff16610d7b565b151561099557600080fd5b306000803373ffffffffffffffffffffffffffffffffffffffff1673ffffffffffffffffffffffffffffffffffffffff16815260200190815260200160002060000160006101000a81548173ffffffffffffffffffffffffffffffffffffffff021916908373ffffffffffffffffffffffffffffffffffffffff16021790555033610a1e610d9d565b808273ffffffffffffffffffffffffffffffffffffffff1673ffffffffffffffffffffffffffffffffffffffff168152602001915050604051809103906000f080158015610a70573d6000803e3d6000fd5b5090506080604051908101604052803073ffffffffffffffffffffffffffffffffffffffff1681526020018273ffffffffffffffffffffffffffffffffffffffff1681526020013373ffffffffffffffffffffffffffffffffffffffff168152602001428152506000803373ffffffffffffffffffffffffffffffffffffffff1673ffffffffffffffffffffffffffffffffffffffff16815260200190815260200160002060008201518160000160006101000a81548173ffffffffffffffffffffffffffffffffffffffff021916908373ffffffffffffffffffffffffffffffffffffffff16021790555060208201518160010160006101000a81548173ffffffffffffffffffffffffffffffffffffffff021916908373ffffffffffffffffffffffffffffffffffffffff16021790555060408201518160020160006101000a81548173ffffffffffffffffffffffffffffffffffffffff021916908373ffffffffffffffffffffffffffffffffffffffff160217905550606082015181600301559050507f757a8c7b21d4836ce8133007bc268f91da1703f7d55d9cb0b83d74ed3f8c651430823342604051808573ffffffffffffffffffffffffffffffffffffffff1673ffffffffffffffffffffffffffffffffffffffff1681526020018473ffffffffffffffffffffffffffffffffffffffff1673ffffffffffffffffffffffffffffffffffffffff1681526020018373ffffffffffffffffffffffffffffffffffffffff1673ffffffffffffffffffffffffffffffffffffffff16815260200182815260200194505050505060405180910390a15b50565b6001809054906101000a900473ffffffffffffffffffffffffffffffffffffffff1673ffffffffffffffffffffffffffffffffffffffff163373ffffffffffffffffffffffffffffffffffffffff16141515610d2957600080fd5b600160009054906101000a900460ff1615600160006101000a81548160ff021916908315150217905550565b600260009054906101000a900473ffffffffffffffffffffffffffffffffffffffff1681565b6000808273ffffffffffffffffffffffffffffffffffffffff16149050919050565b604051610df880610dae833901905600608060405234801561001057600080fd5b50604051602080610df883398101806040528101908080519060200190929190505050806000806101000a81548173ffffffffffffffffffffffffffffffffffffffff021916908373ffffffffffffffffffffffffffffffffffffffff16021790555050610d75806100836000396000f30060806040526004361061008e576000357c0100000000000000000000000000000000000000000000000000000000900463ffffffff1680630178fe3f14610093578063092a5cce146101395780635ae5fd501461015057806389a8e2a71461017b5780638da5cb5b146101ee578063c7b92da114610245578063d05dcc6a146102ae578063f3e22c7f14610354575b600080fd5b34801561009f57600080fd5b506100be6004803603810190808035906020019092919050505061036b565b6040518080602001828103825283818151815260200191508051906020019080838360005b838110156100fe5780820151818401526020810190506100e3565b50505050905090810190601f16801561012b5780820380516001836020036101000a031916815260200191505b509250505060405180910390f35b34801561014557600080fd5b5061014e610439565b005b34801561015c57600080fd5b50610165610581565b6040518082815260200191505060405180910390f35b34801561018757600080fd5b506101ec60048036038101908080359060200190929190803590602001908201803590602001908080601f016020809104026020016040519081016040528093929190818152602001838380828437820191505050505050919291929050505061058e565b005b3480156101fa57600080fd5b506102036107d4565b604051808273ffffffffffffffffffffffffffffffffffffffff1673ffffffffffffffffffffffffffffffffffffffff16815260200191505060405180910390f35b34801561025157600080fd5b506102ac600480360381019080803590602001908201803590602001908080601f01602080910402602001604051908101604052809392919081815260200183838082843782019150505050505091929192905050506107f9565b005b3480156102ba57600080fd5b506102d960048036038101908080359060200190929190505050610983565b6040518080602001828103825283818151815260200191508051906020019080838360005b838110156103195780820151818401526020810190506102fe565b50505050905090810190601f1680156103465780820380516001836020036101000a031916815260200191505b509250505060405180910390f35b34801561036057600080fd5b50610369610a3e565b005b60606001805490508210151561038057600080fd5b60018281548110151561038f57fe5b906000526020600020018054600181600116156101000203166002900480601f01602080910402602001604051908101604052809291908181526020018280546001816001161561010002031660029004801561042d5780601f106104025761010080835404028352916020019161042d565b820191906000526020600020905b81548152906001019060200180831161041057829003601f168201915b50505050509050919050565b6000809054906101000a900473ffffffffffffffffffffffffffffffffffffffff1673ffffffffffffffffffffffffffffffffffffffff163373ffffffffffffffffffffffffffffffffffffffff1614151561049457600080fd5b60006001805490501415156104a857600080fd5b7f1c339d8b20436babaaadaa4f949d00cfb438f00410d6cfa9ddcd2471f69d0845333042604051808473ffffffffffffffffffffffffffffffffffffffff1673ffffffffffffffffffffffffffffffffffffffff1681526020018373ffffffffffffffffffffffffffffffffffffffff1673ffffffffffffffffffffffffffffffffffffffff168152602001828152602001935050505060405180910390a16000809054906101000a900473ffffffffffffffffffffffffffffffffffffffff1673ffffffffffffffffffffffffffffffffffffffff16ff5b6000600180549050905090565b6000809054906101000a900473ffffffffffffffffffffffffffffffffffffffff1673ffffffffffffffffffffffffffffffffffffffff163373ffffffffffffffffffffffffffffffffffffffff161415156105e957600080fd5b6105f281610b29565b1580156106b757506106b58160018481548110151561060d57fe5b906000526020600020018054600181600116156101000203166002900480601f0160208091040260200160405190810160405280929190818152602001828054600181600116156101000203166002900480156106ab5780601f10610680576101008083540402835291602001916106ab565b820191906000526020600020905b81548152906001019060200180831161068e57829003601f168201915b5050505050610b36565b155b15156106c257600080fd5b806001838154811015156106d257fe5b9060005260206000200190805190602001906106ef929190610c0f565b507f37ad3a4f0894aef4e45e647bed791e28df73acb0af724540982f71a0e71dcc1833838342604051808573ffffffffffffffffffffffffffffffffffffffff1673ffffffffffffffffffffffffffffffffffffffff16815260200184815260200180602001838152602001828103825284818151815260200191508051906020019080838360005b83811015610793578082015181840152602081019050610778565b50505050905090810190601f1680156107c05780820380516001836020036101000a031916815260200191505b509550505050505060405180910390a15050565b6000809054906101000a900473ffffffffffffffffffffffffffffffffffffffff1681565b6000809054906101000a900473ffffffffffffffffffffffffffffffffffffffff1673ffffffffffffffffffffffffffffffffffffffff163373ffffffffffffffffffffffffffffffffffffffff1614151561085457600080fd5b61085d81610b29565b15151561086957600080fd5b60018190806001815401808255809150509060018203906000526020600020016000909192909190915090805190602001906108a6929190610c0f565b50507f2b989ee346f29a95fe5447db3c537994b57584f0ae1a993ee9c9b4974c2c7558338242604051808473ffffffffffffffffffffffffffffffffffffffff1673ffffffffffffffffffffffffffffffffffffffff16815260200180602001838152602001828103825284818151815260200191508051906020019080838360005b83811015610944578082015181840152602081019050610929565b50505050905090810190601f1680156109715780820380516001836020036101000a031916815260200191505b5094505050505060405180910390a150565b60018181548110151561099257fe5b906000526020600020016000915090508054600181600116156101000203166002900480601f016020809104026020016040519081016040528092919081815260200182805460018160011615610100020316600290048015610a365780601f10610a0b57610100808354040283529160200191610a36565b820191906000526020600020905b815481529060010190602001808311610a1957829003601f168201915b505050505081565b6000809054906101000a900473ffffffffffffffffffffffffffffffffffffffff1673ffffffffffffffffffffffffffffffffffffffff163373ffffffffffffffffffffffffffffffffffffffff16141515610a9957600080fd5b600060018054905014151515610aae57600080fd5b60016000610abc9190610c8f565b7f6d1143ec6e0bb88d864a06b68af7af7d15c07939d24367ecac7080e62afd8e283342604051808373ffffffffffffffffffffffffffffffffffffffff1673ffffffffffffffffffffffffffffffffffffffff1681526020018281526020019250505060405180910390a1565b6000808251149050919050565b6000816040518082805190602001908083835b602083101515610b6e5780518252602082019150602081019050602083039250610b49565b6001836020036101000a038019825116818451168082178552505050505050905001915050604051809103902060001916836040518082805190602001908083835b602083101515610bd55780518252602082019150602081019050602083039250610bb0565b6001836020036101000a03801982511681845116808217855250505050505090500191505060405180910390206000191614905092915050565b828054600181600116156101000203166002900490600052602060002090601f016020900481019282601f10610c5057805160ff1916838001178555610c7e565b82800160010185558215610c7e579182015b82811115610c7d578251825591602001919060010190610c62565b5b509050610c8b9190610cb0565b5090565b5080546000825590600052602060002090810190610cad9190610cd5565b50565b610cd291905b80821115610cce576000816000905550600101610cb6565b5090565b90565b610cfe91905b80821115610cfa5760008181610cf19190610d01565b50600101610cdb565b5090565b90565b50805460018160011615610100020316600290046000825580601f10610d275750610d46565b601f016020900490600052602060002090810190610d459190610cb0565b5b505600a165627a7a723058204dabfdffb07ac972c4df7dcf76cf7bb1a6fbf34c2f48ce5f4d7d137df43b9d730029a165627a7a72305820f380a298b38a918f5e50e37b2ddcb25c32f6d67df7b96d595dc416b3692ad8560029",
  "source": "pragma solidity 0.4.24;\n\n/**\n * Import Identity Library\n */\nimport \"./IdentityLib.sol\";\n\n/** \n* @title Identity Provider for Digital Identity\n* @author Alberto Ballesteros Rodríguez\n* @notice You can use this contract to generate digital identities based on smart contracts. All information stored must be encrypted.\n* @dev For more implementation details read the \"design_pattern_desecions.md\" document. \n*/\ncontract Identity {\n\n    mapping (address => User) public identityUser;\n    bool public emergencyStop;\n    address public owner;\n    PersonalIdentity public id_contract;\n    \n    event IdentityCreated (address _issuer, address _contract, address _owner, uint256 _timestamp);\n    event IdentityDeleted (address _from, address _contract, uint256 _timestamp);\n    \n    modifier onlyOwner() {\n        require(msg.sender == owner);\n        _;\n    }\n\n    modifier noEmergency \n    { \n        if (!emergencyStop) \n        _;\n    }\n    \n    modifier inEmergency \n    {\n        if (emergencyStop) \n        _;\n    }\n\n    struct User {\n        address issuer;\n        address identityContract;\n        address identityOwner;\n        uint256 timestampCreation;\n    }\n    \n    constructor() public{\n        owner = msg.sender;\n    }\n\n    /**\n     * @notice Generate a new smart contract as a new digital identity.\n     * @dev The smart contract created work as an IDCard template. Will see in 'PersonalIdentity' smart contract.\n     * You can't create a new Identity if you have one.\n     */\n    function newIdentity()\n        public\n        noEmergency\n    {\n        require(IdentityLib.isZero(identityUser[msg.sender].issuer));\n        identityUser[msg.sender].issuer = this;\n        PersonalIdentity c = new PersonalIdentity(msg.sender);\n        identityUser[msg.sender] = User(this, c, msg.sender, now);\n        emit IdentityCreated(this, c, msg.sender, now);\n    }\n\n   /** @notice Get user info inside the User struct.\n     * @dev 'msg.sender' as parameter. If there is no Identity, return will be the '0x0' address.\n     * Necessary if you test the contract with local blockchain like Ganache, not necessary with principal nets (Main, Ropsten, Rinkeby). \n     * @return address Issuer of the identity, in this case this smart contract (Identity.sol).\n     * @return address Smart contract address of your Personal Identity.\n     * @return address Owner of the Personal Identity. Do not confuse with the Issuer, this is the final user.\n     * @return address Date of the Personal Identity creation.\n     */\n    function getUser()\n        public\n        view\n        returns (address, address, address, uint256)\n    {\n        return (\n            identityUser[msg.sender].issuer,\n            identityUser[msg.sender].identityContract,\n            identityUser[msg.sender].identityOwner,\n            identityUser[msg.sender].timestampCreation);\n    }\n   \n    /**\n     * @notice Destroy the Identity and all the attributes.\n     * @dev 'msg.sender' as parameter. Remove all data of the identity, the smart contract and then unlink mapping association between owner \n     * of the identity and the smart contract address. After that you can create a new Identity. \n     * Not possible to delete if you don't have an Identity.\n     * Not possible to dolete if your Identity is not empty.\n     */\n    function deleteIdentity()\n        public\n        noEmergency\n    {\n        require(!IdentityLib.isZero(identityUser[msg.sender].issuer));\n        require(PersonalIdentity(identityUser[msg.sender].identityContract).attributesCounter() == 0);\n        emit IdentityDeleted(msg.sender, identityUser[msg.sender].identityContract, now);\n        delete identityUser[msg.sender];\n    }\n    \n    /**\n    * @dev Owner of the smart contract activate the emergency stop. This will produce that no identities can be created or deleted.\n    */\n    function enableEmergency() \n        public \n        onlyOwner\n    {\n        emergencyStop = !emergencyStop;        \n    }\n}\n\n/** \n * @title Personal Identity IDCard based on an smart contract. \n * @author Alberto Ballesteros Rodríguez\n * @notice You can store your info (previously encrypted), update it or remove.\n * @dev Factory Contract. Use a dynamic array to store identity attributes of the user. \n * For more implementation details read the \"design_pattern_desecions.md\" document. \n */\ncontract PersonalIdentity {\n    \n    address public owner;\n    string[] public attributes;\n\n    event DataCreated (address _from, string _value, uint256 _timestamp);\n    event DataUpdated (address _from, uint _index, string _value, uint256 _timestamp);\n    event DataDeleted (address _from, uint256 _timestamp);\n    event IdentityDestroyed (address _from, address _contract, uint256 _timestamp);\n    \n    modifier onlyOwner() {\n        require(msg.sender == owner);\n        _;\n    }\n    \n    constructor(address _newOwner) public{\n        owner = _newOwner;\n    }\n\n    /**\n     * @notice Upload new information about your identity.\n     * @dev Dynamic array, so the frontend control the order of pushing information inside the array attributes[].\n     * @param _value Encrypted information about your identity. Can't be empty information.\n     */\n    function newData (string _value)\n        public\n        onlyOwner\n    {   \n        require(!IdentityLib.isEmpty(_value));\n        attributes.push(_value);\n        emit DataCreated(msg.sender, _value, now);\n    }\n    \n    /** \n     * @notice Update existing information. \n     * @dev Dynamic array, so the frontend control the order of updating information inside the array attributes[].\n     * @param _index Index of the array attributes[] where the info is located.\n     * @param _value Encrypted information about your identity. Can't be empty or exiting information.\n     */\n    function updateData (uint _index, string _value)\n        public\n        onlyOwner\n    {   \n        require(!IdentityLib.isEmpty(_value) && !IdentityLib.isEqual(_value, attributes[_index]));\n        attributes[_index] = _value;\n        emit DataUpdated (msg.sender, _index, _value, now);\n    }\n    \n    /** \n     * @notice Get the number of attributes stored in attributes[] array. \n     * @dev Function used in frontend to display the information. \n     * @return uint Number of elements of the attributes[] array.\n    */\n    function attributesCounter ()\n        public\n        view\n        returns(uint)\n    {\n        return attributes.length;\n    }\n    \n    /**\n     * @notice Get existing information about the identity.\n     * @dev Dynamic array, so the frontend control the order of updating information inside the array attributes[].\n     * @param _index Index of the array attributes[] where the info is located. Index lower than attributes.length.\n     * @return string Encrypted value of the attribute located. \n    */\n    function getData (uint _index)\n        public\n        view\n        returns (string)\n    {\n        require(_index < attributes.length);\n        return attributes[_index];\n    }\n    \n    /** \n     * @notice Remove all your identity attributes stored in the smart contract.\n     * @dev Remove all the elements in attributes[] array. Can be called directly or from the 'Identity' contract.\n     * Array can't be empty.\n     */\n    function removeAllData ()\n        public\n        onlyOwner\n    {\n        require(attributes.length != 0);\n        delete attributes;\n        emit DataDeleted (msg.sender, now);\n    }\n    \n    /** \n     * @notice Destroy the Identity and all data stored.\n     * @dev Can be called directly or from the 'Identity' contract. Remove all the elements of the attributes array.\n     * Smart contract kill function. \n     */\n    function destroyContract ()\n        public\n        onlyOwner\n    {\n        require(attributes.length == 0);\n        emit IdentityDestroyed(msg.sender, this, now);\n        selfdestruct(owner);\n    }\n}",
  "sourcePath": "/home/alberto/consensys_devacademy/project/contracts/Identity.sol",
  "compiler": {
    "name": "solc",
    "version": "0.4.24+commit.e67f0147.Emscripten.clang"
  },
  "schemaVersion": "2.0.1",
  "updatedAt": "2018-08-26T16:48:53.041Z"
}