{
  "contractName": "OraclizePrice",
  "abi": [
    {
      "constant": true,
      "inputs": [],
      "name": "ETHGAS",
      "outputs": [
        {
          "name": "",
          "type": "string"
        }
      ],
      "payable": false,
      "stateMutability": "view",
      "type": "function"
    },
    {
      "constant": true,
      "inputs": [
        {
          "name": "",
          "type": "bytes32"
        }
      ],
      "name": "oraclizeCallbacks",
      "outputs": [
        {
          "name": "oState",
          "type": "uint8"
        }
      ],
      "payable": false,
      "stateMutability": "view",
      "type": "function"
    },
    {
      "constant": true,
      "inputs": [],
      "name": "ETHprice",
      "outputs": [
        {
          "name": "",
          "type": "string"
        }
      ],
      "payable": false,
      "stateMutability": "view",
      "type": "function"
    },
    {
      "inputs": [],
      "payable": true,
      "stateMutability": "payable",
      "type": "constructor"
    },
    {
      "anonymous": false,
      "inputs": [
        {
          "indexed": false,
          "name": "description",
          "type": "string"
        }
      ],
      "name": "LogInfo",
      "type": "event"
    },
    {
      "anonymous": false,
      "inputs": [
        {
          "indexed": false,
          "name": "price",
          "type": "string"
        }
      ],
      "name": "LogPriceUpdate",
      "type": "event"
    },
    {
      "anonymous": false,
      "inputs": [
        {
          "indexed": false,
          "name": "price",
          "type": "string"
        }
      ],
      "name": "LogGasUpdate",
      "type": "event"
    },
    {
      "constant": false,
      "inputs": [
        {
          "name": "myid",
          "type": "bytes32"
        },
        {
          "name": "result",
          "type": "string"
        }
      ],
      "name": "__callback",
      "outputs": [],
      "payable": false,
      "stateMutability": "nonpayable",
      "type": "function"
    },
    {
      "constant": false,
      "inputs": [
        {
          "name": "myid",
          "type": "bytes32"
        },
        {
          "name": "result",
          "type": "string"
        },
        {
          "name": "proof",
          "type": "bytes"
        }
      ],
      "name": "__callback",
      "outputs": [],
      "payable": false,
      "stateMutability": "nonpayable",
      "type": "function"
    },
    {
      "constant": false,
      "inputs": [],
      "name": "getPriceDetails",
      "outputs": [],
      "payable": true,
      "stateMutability": "payable",
      "type": "function"
    },
    {
      "constant": false,
      "inputs": [],
      "name": "getGasDetails",
      "outputs": [],
      "payable": true,
      "stateMutability": "payable",
      "type": "function"
    }
  ],
  "bytecode": "0x6080604052731d05badcbd3f4657d478debb471534156523b3d36000806101000a81548173ffffffffffffffffffffffffffffffffffffffff021916908373ffffffffffffffffffffffffffffffffffffffff1602179055506200007162000090640100000000026401000000009004565b6200008a6200025c640100000000026401000000009004565b6200102f565b60007ffee95ecae0c8f7f0743ec0ad254c78ab75e5ecca9f1ddcd9f11f9a98124b96bc6040518080602001828103825260358152602001807f4f7261636c697a65207175657279207761732073656e742c207374616e64696e81526020017f6720627920666f722074686520616e737765722e2e000000000000000000000081525060400191505060405180910390a1620001f26040805190810160405280600381526020017f55524c0000000000000000000000000000000000000000000000000000000000815250608060405190810160405280604d81526020017f6a736f6e2868747470733a2f2f6170692e65746865727363616e2e696f2f617081526020017f693f6d6f64756c653d737461747326616374696f6e3d6574687072696365292e81526020017f726573756c742e6574687573640000000000000000000000000000000000000081525062000401640100000000026401000000009004565b9050602060405190810160405280600060018111156200020e57fe5b81525060076000836000191660001916815260200190815260200160002060008201518160000160006101000a81548160ff021916908360018111156200025157fe5b021790555090505050565b60007ffee95ecae0c8f7f0743ec0ad254c78ab75e5ecca9f1ddcd9f11f9a98124b96bc6040518080602001828103825260358152602001807f4f7261636c697a65207175657279207761732073656e742c207374616e64696e81526020017f6720627920666f722074686520616e737765722e2e000000000000000000000081525060400191505060405180910390a1620003986040805190810160405280600381526020017f55524c0000000000000000000000000000000000000000000000000000000000815250606060405190810160405280603c81526020017f6a736f6e2868747470733a2f2f65746867617373746174696f6e2e696e666f2f81526020017f6a736f6e2f6574686761734150492e6a736f6e292e617665726167650000000081525062000401640100000000026401000000009004565b9050602060405190810160405280600180811115620003b357fe5b81525060076000836000191660001916815260200190815260200160002060008201518160000160006101000a81548160ff02191690836001811115620003f657fe5b021790555090505050565b60008060008060009054906101000a900473ffffffffffffffffffffffffffffffffffffffff1673ffffffffffffffffffffffffffffffffffffffff1614806200048557506000620004836000809054906101000a900473ffffffffffffffffffffffffffffffffffffffff16620009df640100000000026401000000009004565b145b15620004a857620004a66000620009ea640100000000026401000000009004565b505b6000809054906101000a900473ffffffffffffffffffffffffffffffffffffffff1673ffffffffffffffffffffffffffffffffffffffff166338cc48316040518163ffffffff167c0100000000000000000000000000000000000000000000000000000000028152600401602060405180830381600087803b1580156200052e57600080fd5b505af115801562000543573d6000803e3d6000fd5b505050506040513d60208110156200055a57600080fd5b810190808051906020019092919050505073ffffffffffffffffffffffffffffffffffffffff16600160009054906101000a900473ffffffffffffffffffffffffffffffffffffffff1673ffffffffffffffffffffffffffffffffffffffff16141515620006c6576000809054906101000a900473ffffffffffffffffffffffffffffffffffffffff1673ffffffffffffffffffffffffffffffffffffffff166338cc48316040518163ffffffff167c0100000000000000000000000000000000000000000000000000000000028152600401602060405180830381600087803b1580156200064857600080fd5b505af11580156200065d573d6000803e3d6000fd5b505050506040513d60208110156200067457600080fd5b8101908080519060200190929190505050600160006101000a81548173ffffffffffffffffffffffffffffffffffffffff021916908373ffffffffffffffffffffffffffffffffffffffff1602179055505b600160009054906101000a900473ffffffffffffffffffffffffffffffffffffffff1673ffffffffffffffffffffffffffffffffffffffff1663524f3889856040518263ffffffff167c01000000000000000000000000000000000000000000000000000000000281526004018080602001828103825283818151815260200191508051906020019080838360005b838110156200077257808201518184015260208101905062000755565b50505050905090810190601f168015620007a05780820380516001836020036101000a031916815260200191505b5092505050602060405180830381600087803b158015620007c057600080fd5b505af1158015620007d5573d6000803e3d6000fd5b505050506040513d6020811015620007ec57600080fd5b8101908080519060200190929190505050905062030d403a02670de0b6b3a764000001811115620008245760006001029150620009d8565b600160009054906101000a900473ffffffffffffffffffffffffffffffffffffffff1673ffffffffffffffffffffffffffffffffffffffff1663adf59f9982600087876040518563ffffffff167c0100000000000000000000000000000000000000000000000000000000028152600401808481526020018060200180602001838103835285818151815260200191508051906020019080838360005b83811015620008de578082015181840152602081019050620008c1565b50505050905090810190601f1680156200090c5780820380516001836020036101000a031916815260200191505b50838103825284818151815260200191508051906020019080838360005b83811015620009475780820151818401526020810190506200092a565b50505050905090810190601f168015620009755780820380516001836020036101000a031916815260200191505b50955050505050506020604051808303818588803b1580156200099757600080fd5b505af1158015620009ac573d6000803e3d6000fd5b50505050506040513d6020811015620009c457600080fd5b810190808051906020019092919050505091505b5092915050565b6000813b9050919050565b600062000a0562000a0c640100000000026401000000009004565b9050919050565b60008062000a3d731d3b2638a7cc9f2cb3d298a3da7a90b67e5506ed620009df640100000000026401000000009004565b111562000af157731d3b2638a7cc9f2cb3d298a3da7a90b67e5506ed6000806101000a81548173ffffffffffffffffffffffffffffffffffffffff021916908373ffffffffffffffffffffffffffffffffffffffff16021790555062000ae76040805190810160405280600b81526020017f6574685f6d61696e6e657400000000000000000000000000000000000000000081525062000f64640100000000026401000000009004565b6001905062000f61565b600062000b2173c03a2615d5efaf5f49f60b7bb6583eaec212fdf1620009df640100000000026401000000009004565b111562000bd55773c03a2615d5efaf5f49f60b7bb6583eaec212fdf16000806101000a81548173ffffffffffffffffffffffffffffffffffffffff021916908373ffffffffffffffffffffffffffffffffffffffff16021790555062000bcb6040805190810160405280600c81526020017f6574685f726f707374656e33000000000000000000000000000000000000000081525062000f64640100000000026401000000009004565b6001905062000f61565b600062000c0573b7a07bcf2ba2f2703b24c0691b5278999c59ac7e620009df640100000000026401000000009004565b111562000cb95773b7a07bcf2ba2f2703b24c0691b5278999c59ac7e6000806101000a81548173ffffffffffffffffffffffffffffffffffffffff021916908373ffffffffffffffffffffffffffffffffffffffff16021790555062000caf6040805190810160405280600981526020017f6574685f6b6f76616e000000000000000000000000000000000000000000000081525062000f64640100000000026401000000009004565b6001905062000f61565b600062000ce973146500cfd35b22e4a392fe0adc06de1a1368ed48620009df640100000000026401000000009004565b111562000d9d5773146500cfd35b22e4a392fe0adc06de1a1368ed486000806101000a81548173ffffffffffffffffffffffffffffffffffffffff021916908373ffffffffffffffffffffffffffffffffffffffff16021790555062000d936040805190810160405280600b81526020017f6574685f72696e6b65627900000000000000000000000000000000000000000081525062000f64640100000000026401000000009004565b6001905062000f61565b600062000dcd736f485c8bf6fc43ea212e93bbf8ce046c7f1cb475620009df640100000000026401000000009004565b111562000e3257736f485c8bf6fc43ea212e93bbf8ce046c7f1cb4756000806101000a81548173ffffffffffffffffffffffffffffffffffffffff021916908373ffffffffffffffffffffffffffffffffffffffff1602179055506001905062000f61565b600062000e627320e12a1f859b3feae5fb2a0a32c18f5a65555bbf620009df640100000000026401000000009004565b111562000ec7577320e12a1f859b3feae5fb2a0a32c18f5a65555bbf6000806101000a81548173ffffffffffffffffffffffffffffffffffffffff021916908373ffffffffffffffffffffffffffffffffffffffff1602179055506001905062000f61565b600062000ef77351efaf4c8b3c9afbd5ab9f4bbc82784ab6ef8faa620009df640100000000026401000000009004565b111562000f5c577351efaf4c8b3c9afbd5ab9f4bbc82784ab6ef8faa6000806101000a81548173ffffffffffffffffffffffffffffffffffffffff021916908373ffffffffffffffffffffffffffffffffffffffff1602179055506001905062000f61565b600090505b90565b806002908051906020019062000f7c92919062000f80565b5050565b828054600181600116156101000203166002900490600052602060002090601f016020900481019282601f1062000fc357805160ff191683800117855562000ff4565b8280016001018555821562000ff4579182015b8281111562000ff357825182559160200191906001019062000fd6565b5b50905062001003919062001007565b5090565b6200102c91905b80821115620010285760008160009055506001016200100e565b5090565b90565b611951806200103f6000396000f300608060405260043610610083576000357c0100000000000000000000000000000000000000000000000000000000900463ffffffff168063202c976f14610088578063226b27301461011857806327dc297e1461012257806338bbfa50146101995780633d86f4af14610256578063426d5ef1146102605780637be70f78146102b3575b600080fd5b34801561009457600080fd5b5061009d610343565b6040518080602001828103825283818151815260200191508051906020019080838360005b838110156100dd5780820151818401526020810190506100c2565b50505050905090810190601f16801561010a5780820380516001836020036101000a031916815260200191505b509250505060405180910390f35b6101206103e1565b005b34801561012e57600080fd5b506101976004803603810190808035600019169060200190929190803590602001908201803590602001908080601f016020809104026020016040519081016040528093929190818152602001838380828437820191505050505050919291929050505061059a565b005b3480156101a557600080fd5b506102546004803603810190808035600019169060200190929190803590602001908201803590602001908080601f0160208091040260200160405190810160405280939291908181526020018383808284378201915050505050509192919290803590602001908201803590602001908080601f016020809104026020016040519081016040528093929190818152602001838380828437820191505050505050919291929050505061083c565b005b61025e610841565b005b34801561026c57600080fd5b5061028f60048036038101908080356000191690602001909291905050506109d3565b6040518082600181111561029f57fe5b60ff16815260200191505060405180910390f35b3480156102bf57600080fd5b506102c86109fe565b6040518080602001828103825283818151815260200191508051906020019080838360005b838110156103085780820151818401526020810190506102ed565b50505050905090810190601f1680156103355780820380516001836020036101000a031916815260200191505b509250505060405180910390f35b60058054600181600116156101000203166002900480601f0160208091040260200160405190810160405280929190818152602001828054600181600116156101000203166002900480156103d95780601f106103ae576101008083540402835291602001916103d9565b820191906000526020600020905b8154815290600101906020018083116103bc57829003601f168201915b505050505081565b60007ffee95ecae0c8f7f0743ec0ad254c78ab75e5ecca9f1ddcd9f11f9a98124b96bc6040518080602001828103825260358152602001807f4f7261636c697a65207175657279207761732073656e742c207374616e64696e81526020017f6720627920666f722074686520616e737765722e2e000000000000000000000081525060400191505060405180910390a16105326040805190810160405280600381526020017f55524c0000000000000000000000000000000000000000000000000000000000815250608060405190810160405280604d81526020017f6a736f6e2868747470733a2f2f6170692e65746865727363616e2e696f2f617081526020017f693f6d6f64756c653d737461747326616374696f6e3d6574687072696365292e81526020017f726573756c742e65746875736400000000000000000000000000000000000000815250610a9c565b90506020604051908101604052806000600181111561054d57fe5b81525060076000836000191660001916815260200190815260200160002060008201518160000160006101000a81548160ff0219169083600181111561058f57fe5b021790555090505050565b6105a2611861565b6105aa61103e565b73ffffffffffffffffffffffffffffffffffffffff163373ffffffffffffffffffffffffffffffffffffffff161415156105e357600080fd5b600760008460001916600019168152602001908152602001600020602060405190810160405290816000820160009054906101000a900460ff16600181111561062857fe5b600181111561063357fe5b8152505090506000600181111561064657fe5b8160000151600181111561065657fe5b141561073a578160069080519060200190610672929190611880565b507f221dd4a47b82d98e10a2a0ebcfdd3314637ca70f414c6987ea6774a907cc06c26006604051808060200182810382528381815460018160011615610100020316600290048152602001915080546001816001161561010002031660029004801561071f5780601f106106f45761010080835404028352916020019161071f565b820191906000526020600020905b81548152906001019060200180831161070257829003601f168201915b50509250505060405180910390a16107356103e1565b610837565b60018081111561074657fe5b8160000151600181111561075657fe5b1415610836578160059080519060200190610772929190611880565b507f8d8a04c4b3a3c22a7f8c08e7cf8a8d032bd4db16808f124b9c27d7ba9a2268f66005604051808060200182810382528381815460018160011615610100020316600290048152602001915080546001816001161561010002031660029004801561081f5780601f106107f45761010080835404028352916020019161081f565b820191906000526020600020905b81548152906001019060200180831161080257829003601f168201915b50509250505060405180910390a1610835610841565b5b5b505050565b505050565b60007ffee95ecae0c8f7f0743ec0ad254c78ab75e5ecca9f1ddcd9f11f9a98124b96bc6040518080602001828103825260358152602001807f4f7261636c697a65207175657279207761732073656e742c207374616e64696e81526020017f6720627920666f722074686520616e737765722e2e000000000000000000000081525060400191505060405180910390a161096c6040805190810160405280600381526020017f55524c0000000000000000000000000000000000000000000000000000000000815250606060405190810160405280603c81526020017f6a736f6e2868747470733a2f2f65746867617373746174696f6e2e696e666f2f81526020017f6a736f6e2f6574686761734150492e6a736f6e292e6176657261676500000000815250610a9c565b905060206040519081016040528060018081111561098657fe5b81525060076000836000191660001916815260200190815260200160002060008201518160000160006101000a81548160ff021916908360018111156109c857fe5b021790555090505050565b60076020528060005260406000206000915090508060000160009054906101000a900460ff16905081565b60068054600181600116156101000203166002900480601f016020809104026020016040519081016040528092919081815260200182805460018160011615610100020316600290048015610a945780601f10610a6957610100808354040283529160200191610a94565b820191906000526020600020905b815481529060010190602001808311610a7757829003601f168201915b505050505081565b60008060008060009054906101000a900473ffffffffffffffffffffffffffffffffffffffff1673ffffffffffffffffffffffffffffffffffffffff161480610b0e57506000610b0c6000809054906101000a900473ffffffffffffffffffffffffffffffffffffffff1661139c565b145b15610b1f57610b1d60006113a7565b505b6000809054906101000a900473ffffffffffffffffffffffffffffffffffffffff1673ffffffffffffffffffffffffffffffffffffffff166338cc48316040518163ffffffff167c0100000000000000000000000000000000000000000000000000000000028152600401602060405180830381600087803b158015610ba457600080fd5b505af1158015610bb8573d6000803e3d6000fd5b505050506040513d6020811015610bce57600080fd5b810190808051906020019092919050505073ffffffffffffffffffffffffffffffffffffffff16600160009054906101000a900473ffffffffffffffffffffffffffffffffffffffff1673ffffffffffffffffffffffffffffffffffffffff16141515610d36576000809054906101000a900473ffffffffffffffffffffffffffffffffffffffff1673ffffffffffffffffffffffffffffffffffffffff166338cc48316040518163ffffffff167c0100000000000000000000000000000000000000000000000000000000028152600401602060405180830381600087803b158015610cba57600080fd5b505af1158015610cce573d6000803e3d6000fd5b505050506040513d6020811015610ce457600080fd5b8101908080519060200190929190505050600160006101000a81548173ffffffffffffffffffffffffffffffffffffffff021916908373ffffffffffffffffffffffffffffffffffffffff1602179055505b600160009054906101000a900473ffffffffffffffffffffffffffffffffffffffff1673ffffffffffffffffffffffffffffffffffffffff1663524f3889856040518263ffffffff167c01000000000000000000000000000000000000000000000000000000000281526004018080602001828103825283818151815260200191508051906020019080838360005b83811015610de0578082015181840152602081019050610dc5565b50505050905090810190601f168015610e0d5780820380516001836020036101000a031916815260200191505b5092505050602060405180830381600087803b158015610e2c57600080fd5b505af1158015610e40573d6000803e3d6000fd5b505050506040513d6020811015610e5657600080fd5b8101908080519060200190929190505050905062030d403a02670de0b6b3a764000001811115610e8c5760006001029150611037565b600160009054906101000a900473ffffffffffffffffffffffffffffffffffffffff1673ffffffffffffffffffffffffffffffffffffffff1663adf59f9982600087876040518563ffffffff167c0100000000000000000000000000000000000000000000000000000000028152600401808481526020018060200180602001838103835285818151815260200191508051906020019080838360005b83811015610f44578082015181840152602081019050610f29565b50505050905090810190601f168015610f715780820380516001836020036101000a031916815260200191505b50838103825284818151815260200191508051906020019080838360005b83811015610faa578082015181840152602081019050610f8f565b50505050905090810190601f168015610fd75780820380516001836020036101000a031916815260200191505b50955050505050506020604051808303818588803b158015610ff857600080fd5b505af115801561100c573d6000803e3d6000fd5b50505050506040513d602081101561102357600080fd5b810190808051906020019092919050505091505b5092915050565b6000806000809054906101000a900473ffffffffffffffffffffffffffffffffffffffff1673ffffffffffffffffffffffffffffffffffffffff1614806110ae575060006110ac6000809054906101000a900473ffffffffffffffffffffffffffffffffffffffff1661139c565b145b156110bf576110bd60006113a7565b505b6000809054906101000a900473ffffffffffffffffffffffffffffffffffffffff1673ffffffffffffffffffffffffffffffffffffffff166338cc48316040518163ffffffff167c0100000000000000000000000000000000000000000000000000000000028152600401602060405180830381600087803b15801561114457600080fd5b505af1158015611158573d6000803e3d6000fd5b505050506040513d602081101561116e57600080fd5b810190808051906020019092919050505073ffffffffffffffffffffffffffffffffffffffff16600160009054906101000a900473ffffffffffffffffffffffffffffffffffffffff1673ffffffffffffffffffffffffffffffffffffffff161415156112d6576000809054906101000a900473ffffffffffffffffffffffffffffffffffffffff1673ffffffffffffffffffffffffffffffffffffffff166338cc48316040518163ffffffff167c0100000000000000000000000000000000000000000000000000000000028152600401602060405180830381600087803b15801561125a57600080fd5b505af115801561126e573d6000803e3d6000fd5b505050506040513d602081101561128457600080fd5b8101908080519060200190929190505050600160006101000a81548173ffffffffffffffffffffffffffffffffffffffff021916908373ffffffffffffffffffffffffffffffffffffffff1602179055505b600160009054906101000a900473ffffffffffffffffffffffffffffffffffffffff1673ffffffffffffffffffffffffffffffffffffffff1663c281d19e6040518163ffffffff167c0100000000000000000000000000000000000000000000000000000000028152600401602060405180830381600087803b15801561135c57600080fd5b505af1158015611370573d6000803e3d6000fd5b505050506040513d602081101561138657600080fd5b8101908080519060200190929190505050905090565b6000813b9050919050565b60006113b16113b8565b9050919050565b6000806113d8731d3b2638a7cc9f2cb3d298a3da7a90b67e5506ed61139c565b111561147957731d3b2638a7cc9f2cb3d298a3da7a90b67e5506ed6000806101000a81548173ffffffffffffffffffffffffffffffffffffffff021916908373ffffffffffffffffffffffffffffffffffffffff1602179055506114706040805190810160405280600b81526020017f6574685f6d61696e6e6574000000000000000000000000000000000000000000815250611847565b60019050611844565b600061149873c03a2615d5efaf5f49f60b7bb6583eaec212fdf161139c565b11156115395773c03a2615d5efaf5f49f60b7bb6583eaec212fdf16000806101000a81548173ffffffffffffffffffffffffffffffffffffffff021916908373ffffffffffffffffffffffffffffffffffffffff1602179055506115306040805190810160405280600c81526020017f6574685f726f707374656e330000000000000000000000000000000000000000815250611847565b60019050611844565b600061155873b7a07bcf2ba2f2703b24c0691b5278999c59ac7e61139c565b11156115f95773b7a07bcf2ba2f2703b24c0691b5278999c59ac7e6000806101000a81548173ffffffffffffffffffffffffffffffffffffffff021916908373ffffffffffffffffffffffffffffffffffffffff1602179055506115f06040805190810160405280600981526020017f6574685f6b6f76616e0000000000000000000000000000000000000000000000815250611847565b60019050611844565b600061161873146500cfd35b22e4a392fe0adc06de1a1368ed4861139c565b11156116b95773146500cfd35b22e4a392fe0adc06de1a1368ed486000806101000a81548173ffffffffffffffffffffffffffffffffffffffff021916908373ffffffffffffffffffffffffffffffffffffffff1602179055506116b06040805190810160405280600b81526020017f6574685f72696e6b656279000000000000000000000000000000000000000000815250611847565b60019050611844565b60006116d8736f485c8bf6fc43ea212e93bbf8ce046c7f1cb47561139c565b111561173b57736f485c8bf6fc43ea212e93bbf8ce046c7f1cb4756000806101000a81548173ffffffffffffffffffffffffffffffffffffffff021916908373ffffffffffffffffffffffffffffffffffffffff16021790555060019050611844565b600061175a7320e12a1f859b3feae5fb2a0a32c18f5a65555bbf61139c565b11156117bd577320e12a1f859b3feae5fb2a0a32c18f5a65555bbf6000806101000a81548173ffffffffffffffffffffffffffffffffffffffff021916908373ffffffffffffffffffffffffffffffffffffffff16021790555060019050611844565b60006117dc7351efaf4c8b3c9afbd5ab9f4bbc82784ab6ef8faa61139c565b111561183f577351efaf4c8b3c9afbd5ab9f4bbc82784ab6ef8faa6000806101000a81548173ffffffffffffffffffffffffffffffffffffffff021916908373ffffffffffffffffffffffffffffffffffffffff16021790555060019050611844565b600090505b90565b806002908051906020019061185d929190611880565b5050565b6020604051908101604052806000600181111561187a57fe5b81525090565b828054600181600116156101000203166002900490600052602060002090601f016020900481019282601f106118c157805160ff19168380011785556118ef565b828001600101855582156118ef579182015b828111156118ee5782518255916020019190600101906118d3565b5b5090506118fc9190611900565b5090565b61192291905b8082111561191e576000816000905550600101611906565b5090565b905600a165627a7a723058203662dc2906c6ef35955af0537e9dbddc94e91076e09b9905d4f5a2b69e5d7bce0029",
  "source": "pragma solidity ^0.4.21;\n\n/**\n * Import usingOraclize.sol\n*/\nimport \"installed_contracts/oraclize-api/contracts/usingOraclize.sol\";\n\n/** \n* @author Alberto Ballesteros Rodríguez\n* @notice You can use this contract to get ETHUSD price and Gas price.\n* @dev Two querys using different IDs to the callback function. \n*/\ncontract OraclizePrice is usingOraclize {\n\n    string public ETHGAS;\n    string public ETHprice;\n\n    event LogInfo(string description);\n    event LogPriceUpdate(string price);\n    event LogGasUpdate(string price);\n    \n    enum oraclizeState \n    { \n        ForPrice, \n        ForGas\n    }\n    \n    struct oraclizeCallback \n    {\n        oraclizeState oState;\n    }\n    \n    mapping (bytes32 => oraclizeCallback) public oraclizeCallbacks;\n\n    constructor()\n        public \n        payable\n    {\n        // Replace the next line with your version:ç\n        OAR = OraclizeAddrResolverI(0x1d05bADcBD3F4657d478dEbB471534156523b3D3);\n        getPriceDetails();\n        getGasDetails();\n    }\n    \n    /**\n    * @notice Callback function to emit the events with the information we want.\n    * @dev Get the querys using the parameter myid and differ with oState\n    * @param myid The id of the query\n    * @param result The result of the query\n    */\n    function __callback(bytes32 myid, string result)\n        public\n    {\n        require (msg.sender == oraclize_cbAddress());\n        oraclizeCallback memory o = oraclizeCallbacks[myid];\n        if (o.oState == oraclizeState.ForPrice) {\n            ETHprice = result;\n            emit LogPriceUpdate(ETHprice);\n            getPriceDetails();\n\n        } else if (o.oState == oraclizeState.ForGas) {\n            ETHGAS = result;\n            emit LogGasUpdate(ETHGAS);\n            getGasDetails();\n        }\n    }\n\n    /**\n    * @notice Function to get the ETHUSD price from etherscan.io\n    * @dev Oraclize query callin the callback function\n    */\n    function getPriceDetails() \n        public\n        payable\n    {\n        emit LogInfo(\"Oraclize query was sent, standing by for the answer..\");\n        bytes32 queryId = oraclize_query(\"URL\", \"json(https://api.etherscan.io/api?module=stats&action=ethprice).result.ethusd\");\n        oraclizeCallbacks[queryId] = oraclizeCallback(oraclizeState.ForPrice);\n    }\n\n    /**\n    * @notice Function to get the Gas price from ETHGasStation\n    * @dev Oraclize query callin the callback function\n    */\n    function getGasDetails()\n        public\n        payable\n    {\n        emit LogInfo(\"Oraclize query was sent, standing by for the answer..\");\n        bytes32 queryId = oraclize_query(\"URL\", \"json(https://ethgasstation.info/json/ethgasAPI.json).average\");\n        oraclizeCallbacks[queryId] = oraclizeCallback(oraclizeState.ForGas);\n    }\n}",
  "sourcePath": "/home/alberto/consensys_devacademy/project/contracts/OraclizePrice.sol",
  "compiler": {
    "name": "solc",
    "version": "0.4.24+commit.e67f0147.Emscripten.clang"
  },
  "schemaVersion": "2.0.1",
  "updatedAt": "2018-08-26T16:47:22.640Z"
}